:020000040800F2
:1000000000200020E5020008ED020008F1020008CF
:100010006503000869030008B10300080000000040
:10002000000000000000000000000000F9030008CC
:10003000FD0300080000000001040008C5350008A9
:10004000150400081504000815040008150400082C
:10005000150400081504000815040008150400081C
:100060001504000815040008810A0008150400089A
:1000700015040008150400081504000815040008FC
:10008000150400081504000815040008000000000D
:10009000000000000000000000000000192500081A
:1000A000150400084525000815040008150400087B
:1000B0000D0D0008693600082D370008B51400083A
:1000C000B5130008150400081504000815040008FD
:1000D00015040008AD1D00081504000815040008EB
:1000E00015040008150400081504000800000000AD
:1000F0000000000000000000000000000000000000
:1001000000000000000000000000000000000000EF
:10011000000000000000000015040008150400089D
:1001200000000000000000000000000000000000CF
:1001300000000000000000000000000000000000BF
:1001400000000000000000000000000000000000AF
:10015000000000000000000000000000000000009F
:10016000000000000000000000000000000000008F
:10017000000000000000000000000000000000007F
:10018000000000000000000000000000000000006F
:10019000000000000000000000000000000000005F
:1001A000000000000000000000000000000000004F
:1001B000000000000000000000000000000000003F
:1001C0000000000000000000000000005FF808F1DF
:1001D00000B583B003F068F8304B314A1360314A00
:1001E0001360314B314A03E0116819600433043263
:1001F0002F498B42F8D32A4B1A682E4B9A4204D1CE
:10020000284B1A682C4B9A4200D0FEE7234B2B4A0E
:1002100013602B4A13602B4B02E000221A60043358
:10022000294A9342F9D3254B1B6813B9244B1B6809
:1002300003B1FEE703F044F8694601A800F05AFB59
:10024000224C234B1C1BA410002504E01F4B53F829
:10025000253098470135AC42F8DC1E4C1E4B1C1B68
:10026000A410002504E01B4B53F8253098470135B6
:10027000AC42F8DC0099019803F06EFA0546174C81
:10028000174B1C1BA41004E0013C144B53F8243002
:100290009847002CF8DC284600F008FBBABADECA02
:1002A000000000200C020020000000203098000810
:1002B0001002002078563412325476981002002032
:1002C00040080020100200204408002040040008DC
:1002D00040040008400400084004000840040008EE
:1002E0004004000808B5FFF773FF00BF00BEFEE73B
:1002F0001EF0040F0CBFEFF30880EFF30980714686
:10030000414A10472DE9F04182B004468846134B1C
:100310005E6B9F6B9D6A1B6B13F0020F0DD00F4B32
:10032000DB6A002B09DA4BF6AB6103F045F820B12C
:100330004FF00042094BDA620CE0094802F066FF18
:10034000CDF800803B4632462946204602F0BCFFED
:1003500000BEFEE702B0BDE8F08100BF00ED00E0A6
:100360008C91000800BEFEE71EF0040F0CBFEFF3F7
:100370000880EFF309807146244A10472DE9F041C7
:1003800082B004468846084B5E6B9F6B9D6A0748A7
:1003900002F03CFFCDF800803B463246294620461D
:1003A00002F092FF00BEFEE700ED00E09C91000825
:1003B0001EF0040F0CBFEFF30880EFF309807146C5
:1003C000134A10472DE9F04182B004468846084B95
:1003D0005E6B9F6B9D6A074802F018FFCDF80080A6
:1003E0003B4632462946204602F06EFF00BEFEE73D
:1003F00000ED00E0A891000800BEFEE700BEFEE7A9
:1004000000BEFEE770470000050300087D030008FA
:08041000C503000800BEFEE771
:1004180030980008000000201002002030980008E2
:100428000000000000000000100200204408002026
:080438000000000000000000BC
:100440008379002B34D010B4204B1A68016822EA5B
:1004500001021A605A68016822EA01025A600279B0
:1004600002F1804202F58232146801682143116072
:100470009A68016822EA01029A60DA68016822EA51
:100480000102DA604379102B09D1104B9968026898
:100490000A439A60D96802680A43DA6013E003F1FC
:1004A000804303F58233196802680A431A600AE040
:1004B000037903F1804303F582331A68016822EA65
:1004C00001021A60704710BC704700BF0004014071
:1004D0000023036003710C2242718371704700BFD7
:1004E000F0B4CB7803F00F02154613F0100F01D0D3
:1004F0008D7815430B78E3B10668002316E00122DE
:100500009A400C8832EA04040FD19C000F27A740C0
:1005100026EA070605FA04F42643CC78282C01D1F4
:10052000426102E0482C00D102610133072BE6D979
:1005300006600B88FF2B1ED94668002318E003F1E4
:1005400008040122A2400C8832EA04040FD19C0066
:100550000F27A74026EA070605FA04F42643CC78BD
:10056000282C00D14261CC78482C00D102610133A3
:10057000072BE4D94660F0BC704700BF4FF6FF730D
:100580000380022383700423C37070478368194279
:1005900001D0012070470020704700BF0161704703
:1005A0004161704730B401F003039B000F2404FA4B
:1005B00003F58908074A023152F8214024EA05046C
:1005C00042F8214052F821409840204342F821004F
:1005D00030BC704700000140F0B587B004460D46BE
:1005E0008688B6B226F03F06B6B201A800F0A0F8A1
:1005F00003982D49A1FB0031890C8FB23E43A680A0
:10060000228892B222F0010292B222802B68274AFD
:10061000934209D85B00B0FBF3F39BB2032B00D8E5
:1006200004230137278427E0EE884BF6FF729642B9
:1006300005D103EB4302B0FBF2F39BB208E003EBFE
:10064000830303EB8303B0FBF3F39BB243F48043D8
:10065000C3F30B020AB943F0010343F400434FF420
:10066000967201FB02F1124A82FB0102C917C1EB2B
:10067000A211013189B22184A38323889BB243F064
:100680000103238023889BB223F4816323F00203B8
:10069000A9886A890A4313432380AA892B891343B3
:1006A000238107B0F0BD00BF83DE1B43A08601009D
:1006B000D34D621041F288330360002383804BF6F0
:1006C000FF72C280038143814FF48043838170476E
:1006D00029B103889BB243F001030380704703886C
:1006E0009BB223F001039BB203807047014B18605B
:1006F000704700BF00300040014B5860704700BF9A
:1007000000300040014B9860704700BF003000404F
:100710004AF6AA22014B1A60704700BF0030004021
:100720004CF6CC42014B1A60704700BF00300040CD
:1007300010B4274B5B6803F00C03042B05D0082B87
:1007400006D0FBB9234B03601EE0224B03601BE085
:100750001F4A53685268C3F38343023312F4803F45
:1007600004D11D4A02FB03F303600DE0184AD26A6C
:1007700002F00F02511C174AB2FBF1F202FB03F325
:10078000036001E0134B036011494B68C3F303138B
:10079000124CE35CDAB20368D34043604A68C2F3A8
:1007A0000222A25CD2B223FA02F282604A68C2F349
:1007B000C222A25CD2B2D340C3604A68C2F3813283
:1007C00007498A5CD2B2B3FBF2F3036110BC7047F5
:1007D0000010024000127A0000093D0008000020CD
:1007E0000400002030B587B004460D46038A9BB252
:1007F000CA8823F440531343038283899BB28A88B7
:10080000098968890A43024323F4B05323F00C0397
:100810001343A381A38A9BB2AA8923F44073134391
:10082000A38201A8FFF784FF1E4B9C4201D1049ACA
:1008300000E0039AA38913F4004F08D002EB820270
:1008400002EB820229684900B2FBF1F107E002EBFA
:10085000820202EB820229688900B2FBF1F1124B9D
:10086000A3FB01235B091B011A09642000FB121280
:10087000A18911F4004F08D0D20032320A49A1FBFD
:100880000212C2F342121A4307E012013232064941
:10089000A1FB0212C2F343121A4392B2228107B0A3
:1008A00030BD00BF003801401F85EB51FEE700BF9F
:1008B00008B50D4B1B6813B90C4A0B4B1A600A4B59
:1008C0001A68C31C23F00303134409498B4206D959
:1008D00006F0ACFA0C2303604FF0FF3008BD02496C
:1008E0000B60104608BD00BF140200204408002021
:1008F000001C002001230360014B0B60704700BF08
:10090000180000202DE9F843292200211F4806F095
:100910009EFA052200211E4806F099FA00261D4B7A
:100920001E701D4C2046FFF729FE1C4F3846FFF76E
:1009300025FE1423E370102525804FF0030884F86A
:100940000280DFF8689021464846FFF7C9FD294636
:100950004846FFF723FE0423FB703D8087F80280A2
:100960000F4C2046FFF7B4FD256026710C276771F8
:100970000123A3710B48FFF7ABFD2560267167715A
:10098000A6710A22084B1A70BDE8F883D80500202A
:100990001806002014060020D405002020060020A0
:1009A0000C0600200406002019020020001001405F
:1009B00038B50546FFF7A6FF0B22294B1A70294CC4
:1009C00029492046FFF78CFD10212046FFF7E6FD60
:1009D00000F0D0F910212046FFF7E2FDC822234B9A
:1009E0001A60224B1B68002BFBD11E4C10212046A5
:1009F000FFF7D4FD1E492046FFF772FD0C221B4B6A
:100A00001A601A4B1B68002BFBD110211548FFF709
:100A1000BDFD012808D10E22114B1A7000F0C2F959
:100A2000E5B102232B7138BD04210220FFF7BAFD86
:100A30001048FFF705FD104BDA6842F01002DA604B
:100A40001A6842F010021A604FF480620B4B1A6071
:100A50001022034B1A702822044B1A6038BD00BFC5
:100A60001902002000100140D40500201C020020C3
:100A7000200600200C0600200004014000E100E0F8
:100A80001C4A536943F0100353611B4B1B78102B16
:100A90002FD110B5194A1078431CDBB213701849D6
:100AA0000A68C2F12802174C225428220A60934295
:100AB0001ED9104BDA6822F01002DA601A6822F0B0
:100AC00010021A604FF480620F4BC3F8802000229E
:100AD0000A4B1A700D4C0E492046FFF701FD1021FC
:100AE0002046FFF75BFD0C22034B1A7000F05AF909
:100AF00010BD7047000401401902002014060020B8
:100B00001C020020D805002000E100E00010014098
:100B1000D4050020002800F0D6802DE9F04F0446CF
:100B200000230BE0684AD25C142A03D90121664AEB
:100B3000D15402E00021644AD1540133282BF1DD65
:100B4000614B93F801C09D78AD01D8781F79597930
:100B50009A79DE7993F808E045EACC1545EA401029
:100B600040EA071040EAC10141EA820141EA460237
:100B700042EA0E0E5FFA8EFE544F87F800E093F8BB
:100B800009909D7AAD01D87A93F80C80597B9A7BB5
:100B900093F80FC01E7C45EAC91545EA401040EAAB
:100BA000081040EAC10141EA820141EA4C021643C1
:100BB000F6B27E7093F811A09D7CAD01D87C93F8BD
:100BC0001490597D9A7D93F8178093F818C045EAE0
:100BD000CA1545EA401040EA091040EAC10141EA5D
:100BE000820141EA480242EA0C0C5FFA8CFC87F869
:100BF00002C093F819B09D7EAD01D87E93F81CA079
:100C0000597F9A7F93F81F9093F8208045EACB157F
:100C100045EA401040EA0A1040EAC10141EA820177
:100C200041EA490242EA08085FFA88F887F8038037
:100C300093F821B093F82220920193F823A093F81F
:100C4000249093F8255093F8260093F8271093F8F2
:100C5000283042EACB1242EA4A1A4AEA091949EA1A
:100C6000C50545EA800040EA4101194339710EEBA0
:100C700006039C44E0445FFA88F846EA0E26144BCB
:100C800083FB06239B102370BB781B02FA7803F4C6
:100C9000FE4313436380BA7812F0800F01D05B42A9
:100CA00063800A4B1B79984506D1002323710D22DE
:100CB000084B1A70BDE8F08F012323710A22054BFF
:100CC0001A70BDE8F08F7047D80500201806002084
:100CD000676666661902002008B5094B1B780B2B66
:100CE0000CD1084B1B684BB90E22054B1A70FFF74D
:100CF00009FE0548FFF7A4FB00F054F808BD00BF4B
:100D0000190200201C020020040600204FF080423F
:100D1000138A9BB223F001039BB21382044B1B681E
:100D2000002B03DD024A1368013B1360704700BFCC
:100D30001C02002030B40E4C2060A18090000321E2
:100D400001FA00F5E560023001FA00F3A360C2B2D7
:100D500022772B43DB43A361012303FA02F12161D4
:100D6000023A03FA02F20A43626130BC704700BFE4
:100D700024060020094A4FF00053C2F880304FF09B
:100D800080410B889BB243F001030B804FF08053EE
:100D900013600122024B1A70704700BF00E100E0AF
:100DA000200200204FF0804213889BB223F0010301
:100DB0009BB21380054B4FF08052C3F880204FF058
:100DC00000521A600022024B1A70704700E100E0E6
:100DD00020020020224B196808689A6902400A60C4
:100DE000196808685A6902430A601A681169988884
:100DF00041EA0041116164211A4B1960194B1B68CB
:100E0000002BFBD1136903431361106814498B69EC
:100E1000034013600A6810680B69034313601422CF
:100E2000104B1A600F4B1B68002BFBD10C4A136848
:100E30009B6892881340402B09D16422094B1A60A9
:100E4000084B1B68002BFBD14FF0FF30704764222A
:100E5000044B1A60034B1B68002BFBD1002070472A
:100E6000240600201C02002080B485B000AF034699
:100E7000FB710023FB7352E02D4B1B682C4A126858
:100E800011682B4A92690A401A60294B1B68284A4C
:100E900012681168264A52690A431A60244B1B687B
:100EA000234A126812692249898809040A431A618F
:100EB00097F9072097F90F3042FA03F303F0010383
:100EC000002B01D0022300E00D231A4A136000BF5B
:100ED000184B1B68002BFBD1154B1B68144A12687A
:100EE0001269134989880A431A6197F9072097F90B
:100EF0000F3042FA03F303F00103002B01D00D235E
:100F000000E002230B4A136000BF0A4B1B68002B52
:100F1000FBD197F90F30DBB20133DBB2FB7397F9EA
:100F20000F30072BA8DD00BF1437BD4680BC7047CB
:100F3000240600201C02002080B483B000AF0023F0
:100F4000FB710023BB7168E03D4B1B683C4A126893
:100F500011683B4A92690A401A60394B1B68384A4B
:100F600012681168364A52690A431A60344B1B688A
:100F7000334A126812693249898809040A431A619E
:100F8000304B02221A6000BF2E4B1B68002BFBD196
:100F90002B4B1B682A4A12681269294989880A431F
:100FA0001A61274B1B68264A12681168244A926905
:100FB0000A401A60224B1B68214A12681168204AB5
:100FC00012690A431A601F4B01221A6000BF1D4BB1
:100FD0001B68002BFBD11A4B1B689B68184A928830
:100FE0001340002B14BF01230023DBB21A4697F9EC
:100FF000063002FA03F35AB2FB791343FB71114B2B
:101000000B221A6000BF0F4B1B68002BFBD197F916
:101010000630DBB20133DBB2BB7197F90630072B28
:1010200092DD084B14221A6000BF064B1B68002B90
:10103000FBD197F9073018460C37BD4680BC704786
:10104000240600201C02002090B589B000AF4FF0AC
:101050000003BB614FF400715948FFF79FFAFFF797
:1010600089FE3B1D09220021184605F0F0FEFFF71E
:10107000B1FE6FF03300FFF7F7FE4420FFF7F4FEF8
:10108000504B514A1A6000BF4E4B1B68002BFBD1DE
:10109000FFF7A0FE6FF03300FFF7E6FE6FF04100B0
:1010A000FFF7E2FE0023FB7710E097F91F40FFF700
:1010B00043FF0346DAB207F12003234403F81C2C54
:1010C00097F91F30DBB20133DBB2FB7797F91F30A2
:1010D000082BEADDFFF766FE3B1D0821184600F0ED
:1010E00075F803467B614FF400713548FFF758FAF5
:1010F0003B7B1A467B699A4259D13B791A467B79E8
:101100001B0213433B613B691B095BB203F07F0386
:10111000FB733B695BB203F00F03BB733B6903F4E2
:101120007043002B02D04FF0FF3300E001237B73AC
:1011300097F90D30012B18D197F90F30184605F0AB
:10114000D9FB044697F90E30184605F0D3FB034649
:101150004FF07651184605F021FC0346194620460B
:1011600005F014FB0346BB6124E097F90F301846E5
:1011700005F0C0FB034619464FF0864005F004FB1E
:1011800003461C4697F90E30184605F0B3FB03469C
:101190004FF07651184605F001FC034619462046EB
:1011A00005F0F2FA034683F00043BB6102E04FF022
:1011B000000300E0BB6918462437BD4690BD00BF60
:1011C000001001401C02002030E6020030B402464C
:1011D000002014E0551C117808230CE080EA01027D
:1011E00012F0010F4FEA500002D080F08C00C0B224
:1011F0004908013BDBB2002BF0D121462A464B1EA9
:10120000DCB20029E6D130BC704700BF10B407291A
:1012100002D904300839C9B2046889000F238B4011
:1012200024EA03030360036802FA01F11943016031
:1012300010BC704710B584B0304AD36943F4001332
:10124000D3612F4B4FF000421A6001225A602D4AA1
:10125000536843F4004353602B4B1B685BB92B4C22
:101260000D2206212046FFF7D1FF0D22072120463F
:10127000FFF7CCFF0FE0264A536843F002035360A8
:10128000224C0D2208212046FFF7C0FF0D22092124
:101290002046FFF7BBFF1022194B83F81F23684637
:1012A000FFF708FA0023ADF804304BF6FF73ADF8F2
:1012B00006304FF48063ADF80A304FF48043ADF848
:1012C0000C304CF250330093124C69462046FFF725
:1012D00083F901212046FFF7FBF9A3889BB243F471
:1012E0000073A380A3889BB243F48063A380A38888
:1012F0009BB243F48073A38004B010BD0010024081
:1013000000E100E0002004E0B4020020000C0140F5
:10131000000001400054004030B4002303E0114DB0
:1013200045F8234001331F2B03DC51F82340002CE8
:10133000F5D1012A03D100220A4B1A6001230A4A7F
:1013400013600A4B18600122094B1A600020094BF8
:101350001860094A13889BB243F48073138030BC31
:10136000704700BF24020020A4020020AC0200202D
:101370003C0300204003002000540040084B1A604A
:10138000084B18600020084B18600122074B1A60B8
:10139000074A13889BB243F480731380704700BFE1
:1013A000B0020020AC02002038030020A802002078
:1013B000005400402F4B9B8A03F480639BB2002BA8
:1013C0002FD02D4B1B68002B2BD12A4A938A9BB21E
:1013D00023F480639BB2938213889BB243F400731F
:1013E0001380244B1B8803F400739BB2002BF8D1AD
:1013F000224B1A6801321A601B68022B0BDD002396
:101400001F4A13601F4A13601F4A13601A4A136071
:101410001E4A136005E0174A13889BB243F4807399
:101420001380144B9B8A03F480639BB203B3124B6B
:101430001B68EBB10F4A938A9BB223F480639BB283
:1014400093820E4B1A6801321A601B68022B0BDD67
:1014500000230B4A13600B4A13600B4A1360064AC1
:1014600013600A4A13607047034A1368013B136014
:10147000704700BF005400403803002040030020A4
:10148000A80200203C030020A4020020B00200209B
:101490000023044A1382044A1360044A1360044A76
:1014A000136070470054004038030020A40200205D
:1014B000B002002008B54FF00042774BC3F88021FE
:1014C000764B9B8A13F0010F12D0754B1B68012BD2
:1014D00003D0744B1B68012B0AD1734B1B689BB262
:1014E0006E4A1382938A9BB223F001039BB29382CC
:1014F0006A4B9B8A03F002039BB2002B31D0684BEE
:101500001B68012B03D0674B1B68012B29D1634A51
:10151000938A9BB223F002039BB29382138B9BB2FC
:1015200023F004039BB21383604B1B68012B0ED185
:101530005C4B1B68012B0AD113889BB223F4806398
:101540009BB2138013889BB243F400731380554BF6
:101550001B68012B05D1514A13889BB243F4806369
:1015600013804E4B9B8A03F080039BB263B14C4BBC
:101570001B68012B08D14E4B1B689BB2474A138254
:101580004C4A1368013313604A4B1A684A4B1B6874
:101590009A4215D1424B1B68012B11D10022404BBE
:1015A0001A603E4A13889BB243F4007313803B4B8E
:1015B0001B8803F400739BB2002BF8D1FFF768FF80
:1015C000364B9B8A03F004039BB223B3344B1B6856
:1015D000012B20D1314B9B8A03F080039BB2D3B106
:1015E0002F4B1B68012B16D1324B1A68324B1B68EC
:1015F0009A4210DA2F4B19682D4A52F8211089B2FD
:10160000264A1182196801311960938A9BB223F02E
:1016100004039BB29382214B9B8A03F040039BB24D
:10162000002B37D01F4B1B68012B33D1214B18687F
:101630001A4A128AD2B2214941F820201A6801328E
:101640001A601A4A12681B68D31A012B06D1134A72
:1016500013889BB223F480639BB21380134B1A68E8
:10166000144B1B689A4215D10C4A13889BB243F461
:1016700000731380094B1B8803F400739BB2002B8B
:10168000F8D1084A13600B4A11680C4A42F821301D
:10169000FFF7FEFE08BD00BF00E100E0005400407F
:1016A0003C030020A8020020AC020020B002002071
:1016B0002402002038030020A4020020B8020020E9
:1016C00000B583B01E23009300230193094B1B68D0
:1016D0001BB1094B1B68002BF8D100226946EC2096
:1016E000FFF71AFE034B1B68002BFBD103B05DF81C
:1016F00004FB00BF3C030020A802002010B582B00C
:1017000000230093019368B902A9542341F8083DCE
:101710000022EC20FFF700FE2F4B1B68002BFBD1B3
:10172000002057E0012828D101226946EC20FFF76C
:10173000F3FD294B1B68002BFBD103226946ED20EA
:10174000FFF71CFE254B1B68002BFBD1244A1068B9
:1017500053681B0243EA0040936840EA030402A96D
:10176000442341F8083D0022EC20FFF7D5FD1A4B39
:101770001B68002BFBD120462CE0022828D1012237
:101780006946EC20FFF7C8FD134B1B68002BFBD10B
:1017900003226946ED20FFF7F1FD104B1B68002B7B
:1017A000FBD10F4A106853681B0243EA004093685C
:1017B00040EA030402A9542341F8083D0022EC202A
:1017C000FFF7AAFD044B1B68002BFBD1204601E06C
:1017D0004FF0FF3002B010BD3C030020A8020020F3
:1017E000B80200202DE9F84F0120FFF787FF04F031
:1017F00019FC06460F46DFF898A0BAF80AB0002494
:101800004FF0804500221D4B2046294602F08CF9FE
:1018100080468946584604F005FC42464B4604F093
:1018200067FC02460B463046394604F0ADFA0646E0
:101830000F46BAF80A0004F0F5FB32463B4604F0C6
:1018400057FC8046894600220D4B2046294602F06F
:101850006BF902460B464046494604F073FD0022F0
:10186000084B04F093FA04F03BFF074905F04AF9EE
:10187000064BC3E90067BDE8F88F00BF00002040B9
:101880000000374000409F400000C842480300204D
:10189000480600202DE9F04F85B00220FFF72EFF0B
:1018A0008246C517534CB4F8048000264FF0804799
:1018B0000022514B3046394602F036F9CDE900019D
:1018C000404604F0AFFBDDE9002304F011FCCDE954
:1018D0000001DFF83CB1208904F0A4FBDBE9002320
:1018E00004F006FC804689460022444B30463946C7
:1018F00002F01AF902460B464046494604F022FD22
:1019000002460B46DDE9000104F040FA05F052FA08
:10191000CDE90201B4F802800022394B3046394645
:1019200002F002F9CDE90001404604F07BFBDDE95D
:10193000002304F0DDFB80468946E08804F072FB5A
:10194000DBE9002304F0D4FBCDE9000100222D4B9C
:101950003046394602F0E8F802460B46DDE9000160
:1019600004F0F0FC02460B464046494604F00EFAED
:1019700005F020FA0AFB01F100FB0511AAFB00AB00
:101980008B440022204B3046394602F0CDF8044605
:101990000D465046594604F07DFB22462B4604F086
:1019A000D1FC04460D46DDE9020104F073FB02465A
:1019B0000B462046294604F0E7F904460D4600226E
:1019C0000F4B3046394602F0AFF802460B46204630
:1019D000294604F0B7FC05F0EDF904F05BFB04F0D8
:1019E0007FFE0A4905F08EF804F02EFB05B0BDE835
:1019F000F08F00BF480600200000304000001C406F
:101A000000002E4000002040000035400000C84289
:101A10004803002010B4C48924F0FF03C3810022CE
:101A2000114621E0144B0B4003D5013B63F0010349
:101A30000133012B05D14B1010F813305A40082305
:101A40000FE04B1030F8133082EA1322F7E712F45C
:101A5000004F03D0520082F4405200E05200013B9C
:101A6000DBB2002BF3D101310F29DBDDC481C2F3DE
:101A7000033010BC704700BF0100008070B584B017
:101A80000E46002400940194254625E0194B1B685E
:101A90001BB1194B1B68002BF8D104F1A003029372
:101AA0000022039202A9EC20FFF736FC114B1B68C1
:101AB000002BFBD102226946ED20FFF75FFC0E4BA5
:101AC0001B68002BFBD10D4A1168536843EA0123C0
:101AD00026F81530013502340E2CD7DD3046FFF7DD
:101AE00099FF082801D1002001E04FF0FF3004B039
:101AF00070BD00BF3C030020A8020020B8020020F7
:101B00002DE9F84304460D4616462949104604F0CF
:101B100045FF4FF07E5104F039FE214604F0F2FFFC
:101B2000244904F03BFF0146284604F0EBFF014640
:101B3000204604F02BFE04F087FA804689462046B2
:101B400004F082FA42464B4604F020F900221A4B78
:101B500004F0CEFA04F0C4FD07461849284604F004
:101B60001DFF174904F0CEFF0146304604F00EFE7B
:101B70000146304604F00AFE4FF07C5104F00EFF9F
:101B80000B4904F00BFF4FF07E5104F0FFFD394686
:101B900004F0B8FF074904F001FF0146284604F0AD
:101BA000B1FF0146204604F0F1FDBDE8F88300BF17
:101BB0006F12833B0000FA450000E03F9A99193FFD
:101BC0000000C84230B585B02A4C09220B212046BE
:101BD000FFF71CFB09220C212046FFF717FB092207
:101BE00008212046FFF712FB08220A212046FFF7B2
:101BF0000DFB092211462046FFF708FB04F540645F
:101C0000012202212046FFF701FB04212046FEF7B6
:101C1000C7FC194A936943F4804393614FF4964398
:101C200000930025ADF80450ADF80650ADF808500B
:101C3000ADF80C500423ADF80A3004F51054694691
:101C40002046FEF7CFFD0D4B20225A6083F8252356
:101C5000A3899BB243F40053A381094B1D60012269
:101C6000084B1A6023889BB223F040039BB2238069
:101C700005B030BD000801400010024000E100E066
:101C8000D80300202000002008B5174B1B68012B4B
:101C900028D0164B1860164B9A8992B242F008026F
:101CA0009A811A8892B222F0400292B21A80114AA6
:101CB00092F9002092B29A8001210B4A1160002211
:101CC0000D490A600D490A609A8992B242F0800279
:101CD0009A819A8992B242F040029A81042108487E
:101CE000FEF75CFC08BD00BFD803002064040020A0
:101CF00000380140E0030020200000206C04002098
:101D000000140140F8B51E4C2468012C36D11F4642
:101D100016460D460446642200211A4805F097F83D
:101D2000194B1C60194B1D70194B1E704FF0FF3280
:101D3000184B1A60184A93899BB243F004039381AD
:101D400005B91EB10022154B1A6002E00122134BA7
:101D50001A6000230A4A1360114A17700D4A136073
:101D6000104B9DF918201A700F4B9DF91C201A700A
:101D7000094A93899BB243F020039381F8BD00BFC9
:101D8000200000205403002068040020DC03002011
:101D9000D60300206C0400200038014050030020CE
:101DA000D5030020D40300206004002010B57E4B32
:101DB0001B8803F080039BB2002B47D07B4B1B6832
:101DC000012B43D17A4B1A68012A04D0794B1B6846
:101DD00001339A4233D1744B1B8803F040039BB20A
:101DE000002BF8D0704B9A8992B222F0080292B27E
:101DF0009A8100246D4A146001216F4A11609A890A
:101E000092B222F0800292B29A819A8992B222F022
:101E1000400292B29A81674A14601A8892B222F004
:101E2000400292B21A8080222146644805F00FF8E1
:101E30005F4B1C6004216248FEF7B2FB06E05D4A7E
:101E400013605E4AD3569BB2574A9380564B1B8809
:101E500003F020039BB2002B00F0A280564B1B68BE
:101E6000002B40F09D80504B9B88C3F30803554ADC
:101E700092F90020934208D1534B1B682BB90123E0
:101E8000514A1360514A13701CE04F4B1B68CBB989
:101E9000454B9A884E4B1A704E4B93F90030012BEC
:101EA00010D1414A93899BB243F008039381138870
:101EB0009BB223F040039BB21380454B93F9003053
:101EC0009BB29380404B1B68012B66D1394B1B683A
:101ED000354A928852B24049CA54404991F900109B
:101EE0008B4206D129B13E4991F900100A443D497F
:101EF0000A603C4A12687F2A0ADD002232490A60E1
:101F000001332C490B603449CA5401222A4B1A6010
:101F1000304B93F90030012B11D1234A93899BB2A6
:101F200043F00803938113889BB223F040039BB2D4
:101F30001380204B1B682849CB569BB293801D4BC6
:101F40001B685A1C274909688A420BD0264991F917
:101F50000010F1B12048C35699421AD11B4B93F996
:101F60000030B3B910498B899BB223F004039BB2B4
:101F70008B818B899BB223F020039BB28B81002342
:101F800011490B6014498B540A4A136001220A4B11
:101F90001A60084A13680133136000220B4B1A7051
:101FA000014B1B8810BD00BF00380140D803002042
:101FB000640400206C04002020000020E0030020C6
:101FC00000140140DC030020500300205B060020C9
:101FD0005A060020D503002054030020D40300201B
:101FE0006004002068040020D603002030B583B0D0
:101FF0004FF40073ADF8043003238DF8063004234A
:102000008DF807302F4C0DEB03012046FEF768FAE0
:102010004FF48075ADF8045014238DF8073001A9F2
:102020002046FEF75DFA29462046FEF7B9FA264B10
:10203000BF221A854B229A851A8892B242F010026A
:102040001A801A8892B222F0100292B21A809A89EB
:1020500092B242F001029A814FF000721B4B1A605B
:102060001B4A00200021C2E9020100211182918255
:1020700091749175012382F8283082F86C110AE07E
:10208000134A02EB03121349D1624FF6FF71118616
:10209000518601335BB2132BF2DD0F4A136943F013
:1020A000100313610D4B9A6842F400729A601A682B
:1020B00042F400721A604FF40002044B1A6003B03D
:1020C00030BD00BF000C0140002C014000E100E0E9
:1020D00060060020000080BF0000014000040140B5
:1020E0002DE9F047604DB5F91C0004F003FC03F046
:1020F000ABFF5BA3D3E9002303F0FAFF00225B4BA5
:1021000004F020F904F0ECFA01F094FC584904F0D2
:1021100045FC04F009FE04B2B5F91C0004F0EAFB2A
:1021200003F092FF4EA3D3E9002303F0E1FF002266
:102130004E4B04F007F904F0D3FA01F0B7FC4C4918
:1021400004F02CFC04F0F0FD95F82830AA6905EBAA
:102150000313DA621C86588600242C866C860023C2
:10216000EB6225462646274601242EE0132C02D09A
:10217000631C5BB200E001233B4A02EB0313D96A04
:10218000484604F001FB82463A4904F0C3FD20B9F9
:102190003949504604F0A0FD10B101377FB212E07A
:1021A000DFF8C4A04946DAF82C0004F0EFFACAF8C8
:1021B0002C000AEB0818B8F93000064436B2B8F91A
:1021C00032301D442DB2013464B2132C0BDCA04616
:1021D000254B03EB0413D3F82C902849484604F010
:1021E00071FD0028C2D0013CE41B1F4F204604F0C3
:1021F00081FB0146F86A04F085FCF86296FBF4F076
:1022000095FBF4F424B200B204F074FB05462046BA
:1022100004F070FB294601F01FFE194904F0BEFBD3
:1022200003F012FF0EA3D3E9002304F08BF804F0AF
:102230000FFA00B2002802DA00F5B47000B20A4BBF
:10224000188693F82820511C83F82810142A02D1EC
:10225000012283F828200020BDE8F087AFF300803A
:10226000F1D4C853FB21094060060020008066407D
:102270000000C84200002041000020C1000080BFD3
:102280000000344370B5012400260BE0074B03EB3C
:102290000413DD6A2946304604F01EFD00B12E46C7
:1022A0000134E4B20F2CF1D9304670BD6006002035
:1022B000F8B5474ED6E902454FF0FF3240F2FF3302
:1022C00014401D4005F00F03DB4303F00F035F10C4
:1022D00007F0020747EAD3075A0002F00402174347
:1022E000DB0003F008031F43384603F09BFE002287
:1022F000384B03F0FDFE04F0ABF9B0836FEA1453E2
:10230000C3F30B03581200F0020040EAD320DA11A5
:1023100002F0040210435A1102F008021043DA10CE
:1023200002F0100210435A1002F0200210435A002B
:1023300002F040021043DA0002F0800210435A011A
:1023400002F480721043DA0102F4007210435A0260
:1023500002F480621043DB0203F40063184300F0D0
:102360000F05C0F303131D4405EB10253D4405F094
:102370000F05756204F0BEFA03F066FE12A3D3E9FE
:10238000002303F0B5FE04F0ABF9B061C4F30344DD
:10239000E44304F00F04631003F0020343EAD402A1
:1023A000630003F004031343E40004F008041C4337
:1023B0003462A54205D1084904F098FC08B1FFF742
:1023C0008FFEF8BDAFF300809A9999999999B93F1A
:1023D00060060020008036400000C84138B5494BF7
:1023E00093F9003001335BB2474A134003D5013BF8
:1023F00063F0010301335BB2424A1370012B7FD1BA
:10240000114602F10803D3E90023941843EB0305B6
:10241000C1E902453D4B9A68C2F34022D2B2002383
:1024200022432B43C1E90223088A0130088202F0CB
:102430001F020023002B08BF1B2A0BD191F9121099
:1024400041B93049012088740520888200208875B0
:10245000C1E902232E4BDB6813F0400F05D02C4A54
:10246000136943F48003136109E0294BDB6813F01F
:10247000400F04D1264A136943F040031361214BF6
:1024800093F91230012B3BD11E4B9B8A292B34D15F
:102490001F4BDB6813F4007F05D01D4A136943F01E
:1024A0000073136104E01A4A136943F40073136163
:1024B000144B93F86C31022B06D9FFF7F9FE00227A
:1024C000104B83F86C2103E001330E4A82F86C3123
:1024D0000C4B00229A7400200021C3E90201012163
:1024E00099759A821A821A700A490B889BB223F056
:1024F00001039BB20B808A8438BD0133014A938269
:1025000038BD00BF6006002001000080000C0140C3
:1025100000100140002C0140084A536943F4007345
:102520005361074B1B8813F0010F06D102F52052AF
:1025300013889BB243F001031380704700040140ED
:10254000002C014008B5054A138A9BB223F0010311
:102550009BB21382FFF742FF08BD00BF002C014071
:10256000044B26221A70002018725872022283F837
:102570006C207047D007002008B518B1064B002228
:102580005A709A7004480021416000F8081B6422C8
:1025900004F05DFC08BD00BFD0070020124B1B6893
:1025A000012B1BD110B582B00C230193062300939D
:1025B00000231A4601210820FFF7A4FB0020FFF7A3
:1025C000DBFF0122094B1A70094C642200212046CE
:1025D00004F03DFC002004F8080C02E04FF0FF304E
:1025E000704702B010BD00BF20000020740400201E
:1025F000D807002038B5BB4B002283F86C201B7A2B
:10260000103B202B00F22483DFE813F0210034007C
:1026100047005800780089009C002203220322030F
:10262000220322032203220322032203C9002203DE
:102630002203220322032203220322032203220372
:10264000220322032203220322032203D4000020B8
:10265000FFF792FFA34C2D23237000232372102336
:102660006372A14904F10A0005F06AF8023084F8A7
:102670006C00EDE20020FFF77FFF9A4C2D232370C2
:102680000023237211236372984904F10A0005F0B4
:1026900057F8023084F86C00DAE20020FFF76CFF94
:1026A000904B2D221A7000221A7212225A720A229C
:1026B0009A72DA72042283F86C20C9E20020FFF7D4
:1026C0005BFF884B2D221A700021197213225A7257
:1026D00011229A72DA7202221A73102058739A73B6
:1026E000D97301221A745A740A229A74DA741A7508
:1026F0005A7599750F2283F86C20A9E20020FFF724
:102700003BFF784B2D221A7000221A7214225A7243
:10271000FF229A72DA72042283F86C2098E2002079
:10272000FFF72AFF6F4B2D221A7000221A72152113
:10273000597208219972DA7201221A73052283F8FC
:102740006C2085E2674B5B7A002B40F08182002091
:10275000FFF712FF634B2D221A7000221A72162106
:1027600059729A720821D972642119735A73C82157
:102770009973DA732C221A7401225A7431219974D4
:10278000DA74CC2119755A75B8219975DA75022257
:102790005A7644221A76122283F86C2058E20020DE
:1027A000FFF7EAFE4F4B2D221A7000221A722022E8
:1027B0005A724DE24B4D6B7AAC7A43EA042424B250
:1027C0000020FFF7D9FE2D232B7000232B7230231E
:1027D0006B7240F231139C4200F0CF80B4F5997FC8
:1027E00009DAC82C4CD0B4F5967F00F08980642CAF
:1027F00040F02E8212E0B4F5E67F00F0FB8004DCAE
:10280000B4F5DC7F00F0478122E2B4F50C7F00F0E4
:102810009381B4F5117F00F0DF8119E2314C64231C
:10282000A3720023E372324904F10C0004F088FF24
:10283000043043B284F86C3004F108002D49184488
:1028400004F07EFF94F86C301844C3B259B20133DF
:10285000DBB25AB22144102008720133DBB259B204
:102860002244112010720133DBB25AB2214481207C
:102870000872013384F86C3014447F232372E7E13B
:10288000184CC823A3720023E3721B4904F10C0007
:1028900004F056FF043043B284F86C3004F10800B1
:1028A0001649184404F04CFF94F86C301844C3B235
:1028B00059B20133DBB25AB22144102008720133FD
:1028C000DBB259B22244112010720133DBB25AB28A
:1028D000214401200872034484F86C3014446423BA
:1028E0002372B5E1D0070020508F00085C8F0008EC
:1028F000648F00087C8F00088C8F0008A48F00086C
:10290000AC4C2C23A3720125E572AB4904F10C00F9
:1029100004F016FF043043B284F86C3004F1080070
:10292000A649184404F00CFF94F86C301844C3B264
:1029300059B22B44DBB25AB22144102008722B4406
:10294000DBB259B22244122010722B44DBB25AB2CD
:102950002144F42008722B44DBB259B22244157290
:102960002B44DBB25AB221444C2008722B4484F829
:102970006C301444042323726AE18E4C3123A37219
:102980000125E5728E4904F10C0004F0D9FE0430F3
:1029900043B284F86C3004F108008849184404F00C
:1029A000CFFE94F86C301844C3B259B22B44DBB25A
:1029B0005AB22144102008722B44DBB259B222448F
:1029C000122010722B44DBB25AB22144F420087258
:1029D0002B44DBB259B2224415722B44DBB25AB2FB
:1029E00021444C2008722B4484F86C301444042396
:1029F00023722DE16F4CB823A3720123E372714956
:102A000004F10C0004F09CFE043043B284F86C30F6
:102A100004F108006C49184404F092FE94F86C30FC
:102A20001844C3B259B20133DBB25AB22144132065
:102A300008720133DBB259B22244162010720133FE
:102A4000DBB258B2214400220A720133DBB259B220
:102A5000204402720133DBB258B221440A720133BE
:102A6000DBB259B2204402720133DBB258B22144C6
:102A70000A720133DBB259B2204402720133DBB275
:102A80005AB2214420200872013384F86C30144477
:102A900042232372DCE0474CCC23A3720123E37270
:102AA0004A4904F10C0004F04BFE043043B284F8B0
:102AB0006C3004F108004449184404F041FE94F8D5
:102AC0006C301844C3B259B20133DBB25AB221445C
:102AD000122008720133DBB259B222441620107260
:102AE0000133DBB258B2214400220A720133DBB257
:102AF00059B2204402720133DBB258B221440A7247
:102B00000133DBB259B2204402720133DBB258B256
:102B100021440A720133DBB259B2204402720133FC
:102B2000DBB25AB2214420200872013384F86C30A1
:102B30001444422323728BE01E4C3023A3720223E1
:102B4000E372234904F10C0004F0FAFD043043B2AF
:102B500084F86C3004F108001E49184404F0F0FDBC
:102B600094F86C301844C3B259B20133DBB25AB294
:102B70002144152008720133DBB259B222441220DD
:102B800010720133DBB25AB22144002008720133C3
:102B9000DBB259B2224410720133DBB25AB2214483
:102BA00067200872013384F86C30144401232372C7
:102BB0004EE000BFD0070020B88F0008D08F00087B
:102BC000E08F0008F88F000810900008209000089F
:102BD00038900008509000081E4C4423A372022332
:102BE000E3721D4904F10C0004F0AAFD043043B265
:102BF00084F86C3004F108001849184404F0A0FD72
:102C000094F86C301844C3B259B20133DBB25AB2F3
:102C10002144152008720133DBB259B2224412203C
:102C200010720133DBB25AB2214400200872013322
:102C3000DBB259B2224410720133DBB25AB22144E2
:102C400067200872013384F86C3014440123237226
:102C5000002038BDD00700203890000860900008A0
:102C60002DE9F843064689464C4D95F808806F7A61
:102C700048EA072424B20020FFF77EFC23232B70B0
:102C800085F8089085F80980AF72B4F5AF7F23D03E
:102C90000BDC652C1AD002DC642C15D076E0C82C35
:102CA00016D0B4F5967F15D070E0B4F5E67F19D054
:102CB00003DCB4F5DC7F12D068E0B4F50C7F14D0EF
:102CC000B4F5117F14D061E0301D13E0304611E0FF
:102CD000701D0FE0B01D0DE006F108000AE006F1DE
:102CE000100007E006F10C0004E006F1140001E01A
:102CF00006F11400B4F5AF7F3AD00BDC652C24D07C
:102D000002DC642C15D045E0C82C12D0B4F5967FB7
:102D10002ED03FE0B4F5E67F17D003DCB4F5DC7FBE
:102D200013D037E0B4F50C7F22D0B4F5117F1FD05B
:102D300030E01A4B1122DA7290F900201A73052242
:102D400083F86C200020BDE8F883144B1622DA7259
:102D500002681A73026812125A73B0F902209A7349
:102D6000C278DA73082283F86C200020BDE8F8836B
:102D70000A4B1222DA7202881A730288120A5A73F4
:102D8000062283F86C200020BDE8F8834FF0FF3066
:102D9000BDE8F8834FF0FF30BDE8F883D00700208E
:102DA0002DE9F04182B0AD4B1D7A002300930193D1
:102DB000042D16D91846FFF7DFFB4FF0FF3049E12D
:102DC000581CA64A1044007A02331A44127A02AE02
:102DD00006EB410640EA022226F8082CDBB201315C
:102DE00003E004460F4600210B462E46A942E7DBCE
:102DF0000020FFF7C1FB994B2F221A701F725D72E2
:102E000000210A4618E102AB03EB410333F8083C0A
:102E1000B3F5AF7F1ED008D8C82B17D0B3F5967F77
:102E200016D0642B40F011810EE0B3F5E67F17D089
:102E300003D8B3F5DC7F10D007E1B3F50C7F12D0D7
:102E4000B3F5117F12D000E1201D11E0601D0FE0ED
:102E5000A01D0DE004F108000AE004F1100007E0F5
:102E600004F10C0004E004F1140001E004F114008A
:102E700040F23115AB4200F0A180B3F5997F09D241
:102E8000C82B18D0B3F5967F00F09880642B40F0E3
:102E9000DF8010E0B3F5E67F41D003D8B3F5DC7FE7
:102EA0003DD0D5E0B3F50C7F00F08880B3F5117FFD
:102EB00000F08480CCE002F1010E5FFA8EFE951CDA
:102EC000664F07EB050C4FF005088CF80880EDB253
:102ED0000EF1020EBE444FF0000C8EF808C002F155
:102EE000030E5FFA8EFE02353D442B72151DEDB2C6
:102EF0000EF1020EBE441B0A8EF8083002EB0803E6
:102F0000DBB202353D444FF0110E85F808E0063281
:102F1000D2B2023390F900003B4418728BE002F108
:102F2000010E5FFA8EFE971C4C4D05EB070C4FF01F
:102F300008088CF80880FFB20EF1020EAE444FF084
:102F4000000C8EF808C002F1030E5FFA8EFE023705
:102F50002F443B72171DFFB20EF1020EAE4423FA4E
:102F600008F38EF8083002F1050E5FFA8EFEBB1CE6
:102F70002B4416271F72931DDBB20EF1020E076859
:102F8000AE448EF80870D71DFFB203F1020C03683F
:102F900043FA08FE0CEB050383F808E002EB080394
:102FA000DBB20237B0F902E02F4487F808E00932BB
:102FB000D2B20233C0781D4428723CE002F1010E07
:102FC0005FFA8EFE951C254F07EB050C4FF00608A7
:102FD0008CF80880EDB20EF1020EBE444FF0000CEA
:102FE0008EF808C002F1030C5FFA8CFC02353D44F8
:102FF0002B7202F1040E5FFA8EFE0CF102053D44C5
:103000001B0A2B72551DEDB20EF102033B444FF02B
:10301000120E83F808E002EB0803DBB20235B0F8C9
:1030200000E03D4485F808E00732D2B20233008860
:10303000000A3B4418720131B142FFF6E4AE02329D
:10304000064B83F86C20002004E04FF0FF3001E0D5
:103050004FF0FF3002B0BDE8F08100BFD007002084
:1030600000230DE080EA010212F0010F02D048F2C5
:10307000084200E0002282EA500049080133DBB236
:10308000072BEFD9704700BFF8B5314B1B68012BF8
:103090005CD1304B1B78012B58D12F4B93F9023068
:1030A000022B44D12C4B93F9033013F1400F3ED146
:1030B000294B93F906502FB200244FF6FF7606E015
:1030C000254B195D3046FFF7CBFF0646013405F16D
:1030D00009039C42F4DB71B246F307241E48C05634
:1030E000814220D105F10A031B49CB569C421AD1DB
:1030F00091F90400194B987048790009587091F9BA
:1031000008101970022F05DDAA1E154903F10800E9
:1031100003F092FE114B023D83F86C505E60022278
:103120000C4B1A7012E003220A4B1A700EE00022B8
:103130000C4B1A6003E00B4A136801331360094B10
:103140001B68B3F5403FF6DBFFF728FA0020F8BD17
:10315000200000207404002054030020D007002029
:103160005E030020700400202DE9F04104460D4666
:1031700080220021284603F06AFE01232B701022D2
:103180006A70A378AB7094F901301B01EB700221D7
:103190002971C0236B7194F96C300B44AB71E971E8
:1031A00094F900302B726A7200230A2205E0511C48
:1031B000E018007AA85401330AB294F96C108B42DB
:1031C000F5DB1FFA82F808F101073FB20323AB5485
:1031D00000264FF6FF7003E0A95DFFF741FF0136BF
:1031E000BE42F9DB08F1020212B2E85508F103030E
:1031F0001BB2C0F30F21A95408F104080422EA54B9
:1032000060600FFA88F0BDE8F08100BF0FB400B530
:1032100083B004AB53F8042B01938021064804F0DB
:10322000E7FA002803DD0146034800F039F803B04F
:103230005DF804EB04B07047780400202DE9F043FA
:1032400085B004460F46435613BB04252846214645
:10325000ABBE04461FE03546102E28BF10250023C4
:1032600006E014F9011B04AA1A4402F8101C0133E9
:10327000AB42F6D304AA1344002203F8102CE9460B
:103280004FF0040840464946ABBE8046761B00E03E
:103290000E46002EDFD1384605B0BDE8F08300BFF2
:1032A00008B5FFF7CBFF08BD08B500F0E9F8024B01
:1032B000024A9A6008BD00BF00ED00E0000000086F
:1032C00008B500F007F908BDF8B504460D461746E5
:1032D0001E462648FFF79AFF21682548FFF796FF0C
:1032E00061682448FFF792FFA1682348FFF78EFF2B
:1032F000E1682248FFF78AFF21692148FFF786FF2E
:1033000061692048FFF782FFA1691F48FFF77EFF30
:10331000E1691E48FFF77AFF1D48FFF777FF29464E
:103320001C48FFF773FF1C4CE16A1C48FFF76EFF57
:10333000216B1B48FFF76AFFE16B1A48FFF766FF36
:1033400015F0800F03D039461748FFF75FFF15F4DB
:10335000004F03D031461548FFF758FF1448FFF7D8
:1033600055FF06991348FFF751FFF8BD709000080C
:103370008090000890900008A0900008B09000088D
:10338000C0900008D0900008E0900008F09000087D
:10339000009100080C91000800ED00E01C9100086D
:1033A0002C9100083C9100084C9100085C910008A9
:1033B0006C9100087491000883691A888A4207D1C9
:1033C0000268033A012A05D802338361012070475D
:1033D000002070470020704782B0002301930093C3
:1033E000244A136843F480331360224B1B6803F4B0
:1033F00000330093019B01330193009B1BB9019B98
:10340000B3F5A06FF1D11B4B1B6813F4003F02D042
:103410000123009301E000230093009B012B26D1A0
:10342000144B5A685A605A685A605A685A605A6807
:1034300022F47C125A605A6842F498125A601A6850
:1034400042F080721A600B4B1B6813F0007FFAD0B9
:10345000084B5A6822F003025A605A6842F002028E
:103460005A60044B5B6803F00C03082BF9D102B0DF
:10347000704700BF0010024008B5FFF7ADFF08BD60
:1034800008B5114B1A6842F001021A6059680F4AD8
:103490000A405A601A6822F0847222F480321A605C
:1034A0001A6822F480221A605A6822F4FE025A60D6
:1034B0004FF41F029A600022DA62FFF7DDFF4FF03F
:1034C0000062034B9A6008BD001002400000FFF844
:1034D00000ED00E01D4B5B6803F00C03042B06D0ED
:1034E000082B08D01BBB1A4A1A4B1A6022E0184A54
:1034F000184B1A601EE0154A53685268C3F38343A1
:10350000023312F4803F05D1134A02FB03F3114A40
:1035100013600FE00D4AD26A02F00F02511C0C4AF0
:10352000B2FBF1F202FB03F30A4A136002E0084A1D
:10353000084B1A60054B5B68C3F30313074AD35C5F
:10354000DAB204490B68D3400B60704700100240A8
:1035500000127A003400002000093D002400002001
:1035600030B583B04FF40073ADF8043003258DF807
:10357000065010238DF80730104C01A92046FCF7A7
:10358000AFFF4FF48073ADF8043001A92046FCF77B
:10359000A7FF0123ADF804308DF8065004238DF801
:1035A00007300DEB03010648FCF79AFF4FF440711A
:1035B0002046FCF7F3FF03B030BD00BF0010014010
:1035C00000080140034B1B681BB1024A1368013B12
:1035D00013607047F80400200E49202381F81C3343
:1035E0004FF0804300221A8577229A851A8892B27A
:1035F00042F010021A801A8892B222F0100292B29F
:103600001A809A8992B242F001029A814FF0805357
:103610000B60704700E100E01149402381F81D3341
:10362000104B4FF6FF721A854FF452529A851A8842
:1036300092B242F010021A801A8892B222F010025E
:1036400092B21A801A8892B242F001021A809A89C4
:1036500092B242F001029A814FF000530B60704722
:1036600000E100E00004004008B5284A138A9BB23C
:1036700023F001039BB21382FDF7E6FC244B186094
:1036800003F052FB234B18714FF480712248FCF772
:1036900085FF224B93F90030032B2DD8DFE803F090
:1036A000020A121FFDF7D0FC194B186001221B4BB8
:1036B0001A7024E0FEF796F8194B18600222174B97
:1036C0001A701CE0FEF7E6F803F00AF802F0BCFC02
:1036D000144BC3E900010322104B1A700FE0124B88
:1036E0001B780E3BDBB2012B02D80A220E4B1A705C
:1036F00000220A4B1A7002E00022084B1A704FF4A5
:1037000080710548FCF74CFF08BD00BF0004004075
:10371000FC04002098050020001001403800002023
:10372000B8050020B005002019020020084A138ABD
:103730009BB223F001039BB21382064A92F9003038
:10374000591C1170032B02D10122024B1A707047D1
:10375000000800403900002080B59F4AD36823F458
:10376000E0631B041B0C43F0BF6343F40033D360DE
:103770009A4AD36943F02703D361936943F40363FF
:1037800043F00D03936180220021954803F05FFB15
:10379000944C06229449204603F04EFB0025A57167
:1037A00006229249E01D03F047FB01236373904C0E
:1037B0006571E58025812571A58200232361E36081
:1037C00045F25550FCF792FF0520FCF795FF40F6B7
:1037D000FF70FCF797FFFCF7A3FFFCF799FFFFF7DB
:1037E000BFFEFFF7F9FE834F072280213846FDF721
:1037F000A1FAFEF7E7F9FEF7F9FBFDF71BFDFDF770
:1038000081F8EC20FDF75CFFFDF71EFC7A4E30607E
:103810007A49EC20FEF732F92846FDF76FFFFDF7F5
:1038200013FC3060FDF7DEFF754B1860FDF70CFCF4
:103830003060FEF72FF802F053FF02F005FC714BE9
:10384000C3E90001306803F06FFA20714FF4407152
:103850003846FCF7A5FEFFF7DFFEFEF79FFE6A4B3A
:103860001B680BB9FCF754FFFDF736FA674B1B7862
:103870000C2B07D00D2B09D00A2B10D16448FDF773
:1038800097F80CE06248FDF745F908E0614B604AA3
:1038900092E80300186099800F225C4B1A70FFF7C2
:1038A000F3FB5D4B1B78022B40F089804FF4807155
:1038B0005048FCF773FE0022584B1A60574B1B68A8
:1038C000B3F5003F04DA554A136801331360F5E796
:1038D000534B93F90030233B0C2B66D8DFE803F001
:1038E0002265650765656565656516655700002095
:1038F000FEF742FEFEF734FE4A494948FFF734FC22
:10390000FEF7C2F90422444B1A7053E0FEF772FE30
:1039100044494348FFF728FCFEF7B6F904223E4B22
:103920001A7047E03B4B1B78314C6371324B1D687A
:103930002560284603F0F8F92071324BD3E900677F
:103940003046394602F0ACFEE0803046394602F09F
:10395000C7FE2A463449FEF7D3F803F00BFA20815C
:10396000324BB3F93020A282DB6AE360FEF78AFCB7
:10397000206100212046FFF773F92A492848FFF704
:10398000F3FBFEF781F90422234B1A7012E00021A9
:103990001748FFF705FA23492148FFF7E5FBFEF733
:1039A00073F904221C4B1A7004E00020FEF7E4FDBA
:1039B000FEF7F4FD4FF480710E48FCF7F1FD164B55
:1039C0001B78042B7FF44BAF194B1B68002B7FF443
:1039D00046AFFEF7E3FD42E700ED00E000100240D5
:1039E0000805002088050020B8910008C091000853
:1039F0009805002000100140FC040020480600202B
:103A0000B8050020B0050020500300201902002056
:103A1000C00500200005002074040020BC05002023
:103A2000D0070020E003002000802844600600202A
:103A3000D803002000B51C4A20F00043934283B015
:103A400018DDB3F1FF4F05DB014602F09DFE03B028
:103A50005DF804FB694601F0BBF800F00302012A9F
:103A600015D0022A0CD0CAB101220199009801F0A8
:103A700035FEECE7002101F01DFA03B05DF804FB10
:103A80000199009801F016FA00F10040DFE7019972
:103A9000009801F023FE00F10040D8E7019900985A
:103AA00001F008FAD3E700BFD80F493F00B51D4A1F
:103AB00020F00043934283B019DDB3F1FF4F05DBE3
:103AC000014602F061FE03B05DF804FB694601F0B7
:103AD0007FF800F00300012818D002280ED0D0B1E2
:103AE0000199009801F0E6F900F10040EBE70022AF
:103AF000002101F0F3FD03B05DF804FB0122019900
:103B0000009801F0EBFD00F10040DCE7019900981E
:103B100001F0D0F9D7E701220199009801F0DEFD0C
:103B2000D1E700BFD80F493F2DE9F04F8DB00646D1
:103B30000F4614461D4600F093F9DFF81093CDE9C7
:103B4000000199F90080B8F1FF3F46D022462B468C
:103B50002046294602F066FD834600283DD13246C4
:103B60003B463046394602F05DFD8246002874D15E
:103B7000304639460022002302F022FD002833D0CF
:103B8000002200232046294602F01AFD8346B8B1E0
:103B9000A94A012300200021CDF828A0CDE904671F
:103BA000CDE90645CDE9080103920293B8F1000F73
:103BB0006CD0A24B0022104619460DB0BDE8F08F24
:103BC0002046294601F004FE38B100220023204699
:103BD000294602F0FFFC00286AD1DDE900231046E7
:103BE00019460DB0BDE8F08FDDE9000101F0F0FDF0
:103BF000804600287DD0DDE900014FF0000A4FF03B
:103C0000000B52465B4602F0DBFC0028E5D0304654
:103C1000394601F0DDFD0028DFD02046294601F0BD
:103C2000D7FD0028D9D099F900308348042100221B
:103C3000022BCDE90467CDE90645CDE908AB039039
:103C400002910A9204D002A801F0C8FD002847D1D1
:103C500003F0ECF82223036042E000220023204618
:103C6000294602F0ADFC0028B7D0744B7248002200
:103C70000121B8F1020FCDF828B0CDE90467CDE9F4
:103C80000645CDE9082303900291A8D002A801F0CF
:103C9000A5FD00287ED00A9B43B303F0C7F8DDE9F9
:103CA00008230A990160104619460DB0BDE8F08F4F
:103CB000614999F900300122CDF828B0CDE90467B7
:103CC000CDE9064503910292002B68D05C490020A3
:103CD000022BCDE9080166D103F0A8F82123036087
:103CE0000A9B1BB103F0A2F80A9B0360DDE90823DD
:103CF00075E73046394601F06BFD00283FF47BAF95
:103D00002046294601F064FD00283FF474AFDDE948
:103D100000231046194602F085FC00286FD1464B5F
:103D200099F90080039303230A90CDE90467CDE954
:103D300006450293B8F1000F3BD1DFF814B14FF004
:103D4000604A0022002330463946CDE908AB02F034
:103D500041FC00283FF477AF00223A4B2046294629
:103D600002F0C6F904460D4601F040FD02460B463E
:103D70002046294602F024FC00283DD1324B4FF06A
:103D80006042CDE9082399F90080B8F1020F7FF471
:103D90005AAF5DE703F04AF8212303607BE7002375
:103DA0000024CDE9083402A801F018FD002897D1BD
:103DB00092E7DFF8A0B04FF0000A0022002330465F
:103DC0003946CDE908AB02F005FC0028DDD0002221
:103DD0001C4B2046294602F08BF904460D4601F0A3
:103DE00005FD02460B462046294602F0E9FB18B9BC
:103DF000134B0022CDE9082399F90080C5E70E4A4C
:103E000099F900900123CDF82880CDE90467CDE928
:103E1000064503920293B9F1000FC0D0002200239F
:103E20001046194602F08EFAB9F1020FCDE90801E9
:103E30003FF452AFB7E700BFC89100080000F03F61
:103E40000000F0FF0000E03FFFFFEFC73A00002056
:103E5000FFFFEF470000F07F00F028BE00000000E9
:103E60002DE9F04F23F0004858EA020993B03CD006
:103E7000714C21F00046A64283460D460CDD06F14A
:103E8000404606F5801656EA0B0038D183466B494A
:103E9000584613B0BDE8F08F9A4696462BD0A04501
:103EA000EDDC654CA04578D0002D0F468146CDE96C
:103EB000002376DB0024BEF1000F27D15E4B98452E
:103EC00000F08B805D4B984552D0BAF1804F00F0E6
:103ED000C9835B4B9A4519D1002D17DB48463946FB
:103EE00013B0BDE8F04F00F01DBDCB465846534916
:103EF00013B0BDE8F08F0028C1D1B045D1DD5148E5
:103F000013B0BDE8F04F01F06BBC002448463946C1
:103F100001F05AFCBBF1000F1CD0ED0F013D54EA3B
:103F2000050370D0484B984540F3948003F1047327
:103F3000984540F30D84454B9E4270DDBAF1000F69
:103F400070DD3BA3D3E900231046194602F0D0F8F8
:103F500083469DE726B1394B25F040429A42DCD199
:103F6000BAF1000FC0F2B783002D08DB83468FE75C
:103F7000BAF1000FC0F25E84CB46394688E706F1FD
:103F8000404606F5801656EA040300F08384012CAF
:103F9000ECD101F1004183467AE7BEF1000F83D0F6
:103FA0006DE72B4B98452CDCA3F15473984581DDCC
:103FB0004FEA2853A3F2FF33142B40F35384C3F189
:103FC00034032EFA03F202FA03F39E457FF472AF34
:103FD00002F00102C2F102046DE706F1404303F56D
:103FE000801353EA0B0300F03A83184B9E4240F3D0
:103FF0006783BAF1000F15DBDDE900349B462146EB
:1040000046E7022457E74A4648463B46394601F010
:10401000BBFE02460B4602F095F9834638E7BAF13B
:10402000000F8EDB4FF0000B594631E7AFF30080F5
:104030009C7500883CE4377E0000F07F0000F03F74
:104040000000E03F8C9000080000E041FFFFEF3FE0
:10405000FFFF3F43B6F5801F4FF0000205DAD04B5B
:1040600002F046F80E466FF03402DFF844E33315F1
:10407000C6F31306A3F2FF3346F07F57764503EBF2
:10408000020A47F4401740F3C983C64B00229E4200
:1040900040F304840023CDE90823CDE90C23C24B6F
:1040A0000022CDE906230AF1010AA7F580170026B0
:1040B0003946DDE90623CDE90A0101F065FEDDE9B7
:1040C000062380468946DDE90A0101F05FFE0246CB
:1040D0000B460020B44902F035F90A460146134662
:1040E000CDE90E1202464946404602F001F88C46E0
:1040F00083467B1043F0005303F5002399190020F9
:10410000CDE904BC06460F464FF0000B6146584609
:1041100032463B46CDE910BCCDE9020101F0E8FF93
:1041200002460B464046494601F02EFEDDE90623D5
:10413000804689463046394601F026FE02460B4647
:10414000DDE90A0101F020FEDDE9022301F0D0FFE4
:1041500002460B464046494601F016FEDDE90E23B5
:1041600001F0C6FFDDE90478CDE906013A46434691
:104170003846414601F0BCFF77A3D3E90023064649
:104180000F4601F0B5FF76A3D3E9002301F0FEFD51
:1041900032463B4601F0ACFF73A3D3E9002301F0A4
:1041A000F5FD32463B4601F0A3FF71A3D3E900239E
:1041B00001F0ECFD32463B4601F09AFF6EA3D3E9D5
:1041C000002301F0E3FD32463B4601F091FF6CA372
:1041D000D3E9002301F0DAFD3246804689463B46AA
:1041E0003046394601F084FF02460B4640464946B8
:1041F00001F07EFFDDE9022306460F46DDE90401FA
:1042000001F0C4FDDDE9062301F072FF32463B46B2
:1042100001F0BCFDDDE902678046894632463B4637
:104220003046394601F064FF0022604BCDE90A01B7
:1042300001F0ACFD42464B4601F0A8FDDDE910BCA3
:104240000F46DDE902015A463B46CDE90EBC5E460B
:1042500001F04EFF0022CDE90201544B30463946B1
:1042600001F092FDDDE90A2301F08EFD02460B46C6
:104270004046494601F088FDDDE9042301F038FF9E
:10428000324680468946DDE906013B4601F030FFB3
:1042900002460B464046494601F078FD8046894675
:1042A00002460B46DDE9020101F070FDDDE90EBCBE
:1042B00035A3D3E900235846CDE906BC5E460F4638
:1042C00001F016FFDDE90223CDE90401304639464D
:1042D00001F05AFD02460B464046494601F054FDA6
:1042E0002BA3D3E9002301F003FF2BA3D3E9002381
:1042F000804689463046394601F0FAFE02460B46B2
:104300004046494601F042FDDDE90C2301F03EFD47
:1043100080465046894601F085FE06460F46DDE997
:10432000040142464B4601F031FDDDE9082301F06E
:104330002DFD32463B4601F029FDDDE906BC324643
:1043400058463B46DA468B4601F01EFDDDE9082360
:1043500030E000BFAFF30080EF4E454A287ECA3FF1
:1043600065DBC9934A86CD3F01411DA96074D13FE9
:104370004D268F515555D53FFFAB6FDBB66DDB3FFB
:10438000033333333333E33F000000E009C7EE3F2C
:10439000FD033ADC09C7EE3FF5015B14E02F3EBE9A
:1043A0000000404379B60B000000F03F00000840D9
:1043B0008E98030001F0E8FCDDE9042301F0E4FC41
:1043C00002460B464046494601F0DEFC80468946DF
:1043D000DDE90012013C54EA050314BFD64CD74C6A
:1043E0000023CDE904340B461446CDE90234002302
:1043F0000293DDE9024508462B461146224601F0AC
:10440000C3FC52465B4601F073FEDDE9002306461D
:104410000F464046494601F06BFE02460B463046C9
:10442000394601F0B3FC06460F4622462B4650465D
:104430005946CDE9006701F05BFE0B460246804617
:1044400089463046394601F0A1FCBD4B06469942EB
:104450000D460C4640F30E8101F13F4303F5E003A6
:10446000034340F0F081A0A3D3E90023DDE900017C
:1044700001F08CFC424682468B464B46304629462C
:1044800001F082FC02460B465046594602F0C0F845
:10449000002840F0D8812F463B154FF48012A3F23C
:1044A000FE3342FA03F32344C3F30A52A54EA2F2A9
:1044B000FF321641C3F3130B0020C2F1140523EAA7
:1044C00006014BF4801B02460B46002C4BFA05FB01
:1044D00040464946B8BFCBF1000B01F055FC0246FF
:1044E0000B4680468946DDE9000101F04FFC4FEAAA
:1044F0000B5A00247EA3D3E9002320460D4601F089
:10450000F7FD424606460F464B462046294601F037
:104510003BFC02460B46DDE9000101F035FC76A3C9
:10452000D3E9002301F0E4FD75A3D3E9002380461D
:1045300089462046294601F0DBFD02460B464046EF
:10454000494601F023FC8046894602460B46304628
:10455000394601F01BFC32463B4604460D4601F04D
:1045600013FC02460B464046494601F00DFC22462C
:10457000804689462B462046294601F0B9FD62A3B4
:10458000D3E9002306460F4601F0B2FD60A3D3E94C
:10459000002301F0F9FB32463B4601F0A9FD5EA382
:1045A000D3E9002301F0F2FB32463B4601F0A0FDC7
:1045B0005BA3D3E9002301F0E7FB32463B4601F061
:1045C00097FD59A3D3E9002301F0E0FB32463B46B7
:1045D00001F08EFD02460B462046294601F0D4FB31
:1045E00006460F4602460B462046294601F080FD4E
:1045F0000022CDE900014FF080433046394601F0FA
:10460000C3FB02460B46DDE9000101F09BFE42467A
:1046100006460F464B462046294601F069FD4246B4
:104620004B4601F0B3FB02460B463046394601F0DB
:10463000ABFB22462B4601F0A7FB02460B460020AF
:104640003D4901F0A1FB8A44BAF5801FC0F23781D1
:104650005146DDE9042301F04BFD834618E4F3469F
:10466000354915E44A4648463B46394601F040FD87
:1046700083460DE4344B21F000479F4240F3018113
:10468000324B0B4403430CD142464B4601F07CFBBA
:1046900002460B46DDE9000101F0A6FF00283FF4C9
:1046A000FBAE23A3D3E90023DDE9040101F020FDE3
:1046B0001FA3D3E9002301F01BFD8346FFF7E8BBEE
:1046C000BAF1000FBFF6AEACDDE900349B4604F151
:1046D0000041FFF7DDBB02460B460020164901F002
:1046E00031FE41E4AFF30080FE822B654715973C15
:1046F00000000000432EE63FEF39FAFE422EE63F6F
:10470000396CA80C615C20BED0A4BE726937663ECD
:10471000F16BD2C541BDBB3E2CDE25AF6A56113FC1
:1047200093BDBE166CC1663F3E5555555555C53FA8
:1047300059F3F8C21F6EA5010000F03F0000F0BF62
:10474000FFFF8F40FFFF0F00FFCB904000346F3F13
:104750006F4B9E427FF763AC6E4B9E423FF7EEABD2
:1047600000226C4B01F010FB5BA3D3E9002306464B
:104770000F4601F0BDFC5AA3D3E9002380468946C9
:104780003046394601F0B4FC002282468B46624B2B
:104790003046394601F0ACFC02460B4652A1D1E945
:1047A000000101F0F1FA32463B4601F0A1FC02465D
:1047B0000B460020594901F0E7FA3246CDE90201E3
:1047C0003B463046394601F093FC02460B46DDE994
:1047D000020101F08DFC46A3D3E9002301F088FC1F
:1047E00002460B465046594601F0CEFA02460B46A9
:1047F00006460F464046494601F0C8FA42464B4637
:10480000002082468B4601F0BFFA02460B46304636
:10481000394601F0B9FA80468946D9E500220023DD
:10482000CDE90823CDE90C233A4B00220026CDE93F
:1048300006233DE44A463B460020364901F082FD0E
:104840008346FFF725BB2CA3D3E90023DDE9040150
:1048500001F04EFC28A3D3E9002301F049FC834674
:10486000FFF716BBBEF1000F7FF44FABC3F114038B
:1048700048FA03F202FA03F3984524D07446FFF78E
:1048800021BB264B9F423FF707AEDDE902349A4633
:104890009B462EE602460B46FFF7B9BB204B4FF472
:1048A0008026CDE9062316A3D3E90023CDE908230A
:1048B00015A3D3E90023CDE90C23FFF7F9BB5A4632
:1048C00001F026F8C5E602F00102C2F10204FFF78A
:1048D000F9BA00BFAFF30080000000604715F73F52
:1048E00044DF5DF80BAE543E555555555555D53FF3
:1048F000FE822B654715F73F9C7500883CE4377EA8
:104900000000004003B8E23F06D0CF43EBFD4C3E31
:10491000FEFFEF3F0000F03F0000D03F0000E03F0F
:104920000000F83F2DE9F0415F4E0C46B6460E40C0
:104930007645054600F0988000290B46024674DD56
:104940005FEA215E7FD0AEF2FF3EC3F313031EF099
:10495000010F43F4801363D100273E4603EBD2716D
:104960000B444FEA6E0E520016204FF400117418DB
:104970009C424FEAD2754FEA420202DC1B1B6618CA
:104980000F44013805EB43034FEA5101EFD1844650
:1049900020244FF0004109E020D003EBD275013C08
:1049A0004FEA51012B444FEA420220D09E4201EBD4
:1049B0000C05F1DA002D05EB010C09DBB046954240
:1049C000A3EB060300D9013B4646521B0844E4E72B
:1049D000BCF1000FF2DB06F10108F0E7954217D8B1
:1049E000002D05EB010C49DB98460023ECE713434F
:1049F00010D140087B1003F17F5303F50013FA0731
:104A000003EB0E57394648BF40F00040BDE8F08147
:104A10003346C2E7411C35D000F001031844E8E7F3
:104A20005B0003EBD273520096E721F00046064389
:104A3000ECD079BB8E46D30AAEF1150E5205002B91
:104A4000F9D0DD0221D4002100E001465B00DC0248
:104A500001F10100F9D5C0F1200422FA04F4234346
:104A6000C1EB0E0E82406EE702460B4601F040FBA2
:104A70002A46234601F08AF9BDE8F081BCF1000F17
:104A8000A9DAB1E701372046B4E720244FF0FF311F
:104A90000020E2E702460B4601F076F902460B469B
:104AA00001F050FCB2E700BF0000F07FF8B50C4603
:104AB00021F00041B1F1FF4F034614DC20F0004625
:104AC000B6F1FF4F07460EDCB4F17E5F3DD0A5176F
:104AD00005F0020545EAD07556B9022D31D0032DF7
:104AE0002CD13248F8BD1946204601F04FFEF8BDE2
:104AF00001B3B1F1FF4F2CD0B6F1FF4F1AD0711AAC
:104B0000C9153C291BDC002C39DB2146184601F075
:104B1000F9FF01F085F800F06DFF012D2CD0022D7A
:104B200022D0002D2FD0224901F030FE214901F082
:104B30002BFEF8BD002F06DB1F48F8BDF8BD1E4850
:104B4000EBE71C48F8BD1D48F8BDBDE8F84000F093
:104B500051BFB6F1FF4F17D0022DF2D0032DC0D0B8
:104B6000012D19D00020F8BD114901F00FFE0146BA
:104B7000104801F009FEF8BD00F10040F8BD3C31DD
:104B8000C3DA0020C9E7F8BD022D0CD0032D08D0F0
:104B9000012D04D00A48F8BD4FF00040F8BD094887
:104BA000F8BD0948F8BD0948F8BD00BFDB0F49C092
:104BB0002EBDBB33DB0F4940DB0FC93FDB0FC9BF45
:104BC000DB0F493FDB0F49BFE4CB16C0E4CB1640F7
:104BD0002DE9F04FAA4A20F00044944289B067DDE5
:104BE000A84A0D469442074601461CDC0028A64907
:104BF00040F3EA8001F0C8FDA44B24F00F049C426E
:104C0000064663D0A24901F0BFFD01463046296047
:104C100001F0BAFD9E4901F0B7FD01236860184616
:104C200009B0BDE8F08F9B4A944261DDB4F1FF4FBB
:104C300046DAE615863EA4EBC654204602F074F828
:104C400001F058FE034620461946059301F09CFDED
:104C50004FF0874101F0A2FE804602F065F801F0B6
:104C600049FE044640462146069401F08DFD4FF072
:104C7000874101F093FE0021079002F023F80028FD
:104C800000F0C3802046002102F01CF8002814BF69
:104C900001230223804802210190009132462946D7
:104CA00005A800F0CBF9002FC0F2A580034603E071
:104CB000002208604A600023184609B0BDE8F08F62
:104CC00001F062FD002368602860F5E7734901F098
:104CD0005BFD7349044601F057FD014620462960FB
:104CE00001F052FD6E4901F04FFD01236860E3E7DA
:104CF00000F096FF6B49804601F050FE4FF07C516A
:104D000001F044FD02F010F8064601F0F3FD5E49A3
:104D1000834601F043FE0146404601F035FD5C4903
:104D20008146584601F03AFE1F2E8246014648460B
:104D300018DC5D4B721E53F8223024F0FF029A42B9
:104D400010D001F021FD8046C5F80080414648465C
:104D500001F01AFD514601F017FD002F686056DB87
:104D60003346A9E701F010FDE215C0F3C753D31A8B
:104D7000082B8046E8DD49495846039201F00EFEB3
:104D800080460146484601F0FFFC0146044648467D
:104D900001F0FAFC414601F0F7FC804640495846D4
:104DA00001F0FCFD414601F0EFFC01468246204641
:104DB00001F0EAFC039AC0F3C753D21A192A8046BD
:104DC00041DC2860A146C1E701F0E0FC2F4B24F054
:104DD0000F049C42064623D02D4901F0D7FC014622
:104DE0003046296001F0D0FC294901F0CFFC4FF09A
:104DF000FF33686060E795E80C0002F1004103F1C1
:104E00000042296043426A6056E7032342E708F103
:104E1000004800F10040C5F80080686073424BE72D
:104E20001E4901F0B3FC1E49044601F0AFFC0146E7
:104E30002046296001F0A8FC194901F0A7FC4FF0B9
:104E4000FF33686038E71949584601F0A7FD01466D
:104E50008046204601F098FC01468146204601F03C
:104E600093FC414601F090FC04461149584601F07C
:104E700095FD214601F088FC82460146484660E7E0
:104E8000D80F493FE3CB1640800FC93FD00FC93F31
:104E900043443537800F49434C920008004435376E
:104EA00008A3852E84F9223FCC91000800A3852E0B
:104EB00032318D242DE9F84320F00044B4F1485FED
:104EC00006460F4649DA01F02FFF002800F09D80CA
:104ED0003146304601F062FD05464E4901F05EFD67
:104EE0004D4901F053FC294601F058FD4B4901F0B2
:104EF0004BFC294601F052FD494901F047FC294687
:104F000001F04CFD474901F03FFC294601F046FD08
:104F1000454901F03BFC294601F040FD80464FF039
:104F20007C51284601F03AFD41460446284601F0EE
:104F300035FD39460546304601F030FD014628462C
:104F400001F022FC0146204601F01EFC01464FF014
:104F50007E5001F019FCBDE8F883014601F01EFD0A
:104F600005462C4901F01AFD2B4901F00FFC29469A
:104F700001F014FD294901F007FC294601F00EFD5E
:104F8000274901F003FC294601F008FD254901F0FD
:104F9000FBFB294601F002FD234901F0F7FB2946FE
:104FA00001F0FCFC214B80469C42B8DD204B9C422A
:104FB00027DC04F17F4421464FF07E5001F0E4FBF2
:104FC00081464FF07C51284601F0E8FC214601F073
:104FD000DBFB41460446284601F0E0FC3946054625
:104FE000304601F0DBFC0146284601F0CDFB0146CE
:104FF000204601F0C9FB0146484601F0C5FBBDE86B
:10500000F883DFF834900B4CDBE74FF07E50BDE8BF
:10501000F88300BF4ED747ADF6740F317CF293345E
:10502000010DD037610BB63AABAA2A3D9999993E4A
:105030000000483F0000903E0000383F2DE9F04F4F
:105040001C46DFB00891611E01910A936899BB4B21
:10505000029053F821300793D31E48BF131DDB1075
:1050600023EAE37319460B930133A2EBC3030693C0
:10507000019A079B8D1A9C1815D42C44013421AE3B
:10508000699F08E057F8250001F034FC0135A5427E
:1050900046F8040F07D0002DF4DA01350020A542B0
:1050A00046F8040FF7D1079B002B2ADB079B0A9ACF
:1050B00019469346019E49AF01EB0208019B002B64
:1050C000C0F2A18122ABCBEB060503EB8505029B69
:1050D0004FF00009A3F1040A22AB03EB86045AF84F
:1050E000041F54F8040901F059FC0146484601F038
:1050F0004DFBAC428146F2D10136464547F8049F4C
:10510000DCD1079B0EA91E4603F18043023B9B00A6
:105110001A1D0A440B440D920C935EAB03EB8603FD
:10512000002E53F8508C23DD5EAB03EB8604543C19
:105130000DAD49AF4FF06E51404601F02FFC01F02C
:10514000F3FD01F0D7FB4FF08741814601F026FCCB
:105150000146404601F018FB01F0E6FD54F8041941
:1051600045F8040F484601F011FBBC428046E1D1EE
:105170004046DDF81880414600F09CFD4FF0785124
:10518000044601F00BFC00F04FFD4FF0824101F0AE
:1051900005FC0146204601F0F7FA044601F0C4FD83
:1051A000074601F0A7FB01462046444601F0ECFA11
:1051B000002C054640F30E81701E0EAB53F82030D4
:1051C000C8F1080243FA02F101FA02F29B1AC8F18F
:1051D000070A0EAA42F820300F4443FA0AFABAF13D
:1051E000000F30DD002E07F1010740F34D82002251
:1051F00014460DA907E0C3F580700BB108600124C7
:10520000013296420BDD51F8043F002CF3D00132FD
:10521000C3F1FF0396420B604FF00104F3DC069BE1
:10522000002B0DDD012B00F0DD80022B08D1721E5A
:105230000EAB53F822300EA903F03F0341F82230A1
:10524000BAF1020F7CD00021284601F03BFD002876
:1052500000F09080079B741EA34210DC06F180438F
:105260000EAA013B0D9802EB8303002253F80419A8
:10527000834242EA0102F9D1002A40F0DE80079B16
:105280000EAA013B52F82330002B40F0FB810C9B0F
:10529000012753F804290137002AFAD0F219731CA8
:1052A0009342099240DC0B9AB90003EB02080A9A78
:1052B00008F1804803916999164408F1FF38B2005B
:1052C00001EB880822A99B00049201EB020A4AAA7A
:1052D00002EB0309043B0593002658F8040F01F084
:1052E00009FB019B4AF8040B002B1FDB049B0027E2
:1052F000F418059BF51822AB1C441D44029BA3F136
:10530000040B5BF8041F54F8040901F047FB014645
:10531000384601F03BFAAC420746F2D1039B043613
:105320009E4249F8047BD8D1099EF6E6039B0436D9
:1053300000279E4249F8047BCFD1F5E76495000829
:1053400029464FF07E5001F01FFA0546002C3FF42D
:105350007AAF06994FF07E5000F0ACFC014628462B
:1053600001F012FA05460021284601F0ABFC0028A6
:105370007FF470AF0297069F2846794200F09AFCAE
:105380004FF08741044601F0BBFC002800F081810A
:105390004FF06E51204601F001FB01F0C5FC01F019
:1053A000A9FA4FF08741054601F0F8FA0146204678
:1053B00001F0EAF901F0B8FC0EAB43F826002846EC
:1053C00001F0B2FC3B460833741C06930EAB43F865
:1053D000240047E010D1731E0EAA52F823304FEA82
:1053E000232AFCE6721E0EAB53F822300EA903F0FE
:1053F0007F0341F8223023E74FF07C5101F080FC1D
:1054000050B982461FE701364FF00009464547F87C
:10541000049F7FF453AE74E6002E07F10107C8BF66
:105420004FF0020A3FF7E3AE29464FF07E5001F0FD
:10543000ABF94FF0020A054605E7069A0EAB53F8A2
:105440002430083A0297069263B904F18043013B85
:105450000EA901EB830353F80419013C083A002913
:10546000F9D0069206994FF07E5000F023FC002CF4
:105470000546C0F21881A3004AAA1F1D02EB0309CA
:1054800001930EAB1F4409F1040657F8040D01F017
:1054900031FA294601F082FA4FF06E5146F8040DB8
:1054A000284601F07BFA0EAB9F420546EDD1A3469C
:1054B000DDF81C80A9F104090027CDF80CA0B8F193
:1054C000000FB8BF002615DB824CCA468248002672
:1054D000002503E0AF420DDB54F8040F5AF8041F17
:1054E00001F05CFA0146304601F050F90135A8455B
:1054F0000646EFDA5EAB03EB8703A9F1040943F834
:10550000A06C48AB994507F10107D8D1689B5C4670
:10551000DDF80CA0032B5AD8DFE803F08D5F5F02A3
:10552000002C40F3BE80019A5EA98B1836AE53F86A
:10553000A07CB51855F8049C3946484601F026F978
:1055400080460146484601F01FF9394601F01EF930
:10555000286045F8048DAE424746EBD1012C40F35C
:10556000A080019B5EAAF418254602EB030858F8B8
:10557000A06C0DF1DC0955F8048C3046414601F071
:1055800005F907460146404601F0FEF8314601F0B4
:10559000FDF8286045F8047DA9453E46EBD1002082
:1055A000043438AD54F8041D01F0F0F8A542F9D1E7
:1055B000BAF1000F6AD0369A379B00F1004002F131
:1055C000004203F10043089CA06022606360029BDC
:1055D00003F007005FB0BDE8F08F019D36AE0435E3
:1055E0003544002055F8041D01F0D0F8B542F9D13A
:1055F000BAF1000F39D0089A00F100430146136058
:10560000369801F0C1F8002C0BDD36AE01250135CE
:1056100056F8041F01F0BAF8AC42F8DABAF1000FFC
:1056200050D0089A00F100435360029B03F007003A
:105630005FB0BDE8F08F019B5EAA13440020A3F188
:105640009C05013C55F8041D01F0A0F8631CF8D13D
:10565000BAF1000F01D000F10040089B1860029BD6
:1056600003F007005FB0BDE8F08F089B01461860AB
:10567000369801F089F8002CD8BF0346C5DC089A9B
:105680005360D2E7012709E60024C8E5369A379B24
:1056900099E7204601F048FB0EAB344643F826005C
:1056A000E0E6002084E7689B032B90D801A252F823
:1056B00023F000BFD1560008CD560008CD56000893
:1056C000A35600080346089A5360AEE700208FE710
:1056D0000020BDE7709500080000C93F2DE9F843A0
:1056E00020F00043B3F1485F04460F46904603DACA
:1056F00001F01AFB002858D02146204601F04EF94F
:1057000005460146204601F049F929490646284642
:1057100001F044F9274901F037F8294601F03EF934
:10572000254901F033F8294601F038F9234901F001
:105730002BF8294601F032F9214901F027F881467A
:10574000B8F1000F22D04FF07C51384601F026F915
:1057500049468046304601F021F90146404601F0B5
:1057600013F8294601F01AF9394601F00DF81549E8
:105770000546304601F012F90146284601F006F8C8
:105780000146204601F000F8BDE8F88301462846AE
:1057900001F004F90B4900F0F7FF314601F0FEF883
:1057A000214600F0F3FFBDE8F8832046BDE8F8830A
:1057B000D3C92E2F342FD7321BEF3836010D503975
:1057C0008988083CABAA2A3E21F00041704700BFFF
:1057D00041F0004101F58010C00F70470020704774
:1057E00000200149704700BF0000F87FF0B5C1F309
:1057F0000A5EAEF2FF36132E83B002460B460C460D
:105800004FEAD17507462EDC002E49DB3D49314178
:1058100003EA010010432BD049080B4053EA02076A
:105820000CD04FF48023132E24EA010143FA06F42E
:1058300044EA01040CBF4FF000470027324B2146D9
:1058400003EBC505D5E90045384622462B4600F056
:105850009DFACDE90001DDE9000122462B4600F06A
:1058600093FA03B0F0BD332E06DDB6F5806F45D058
:105870001046194603B0F0BDAEF2134E4FF0FF31A3
:1058800021FA0EF10842F3D049080842D6D04FF071
:10589000804320EA010143FA0EFE4EEA0107CDE7FC
:1058A00021F0004101431946E4D0C3F3130343EA56
:1058B000000CCCF1000343EA0C0C134B640C4FEAD0
:1058C0001C3C0CF4002C03EBC5036404D3E9006713
:1058D0004CEA040132463B4600F058FACDE900019B
:1058E000DDE9000132463B4600F04EFA024621F067
:1058F000004141EAC57310461946BBE700F046FA7D
:10590000B8E700BFFFFF0F00A095000800000000EF
:10591000F8B5C1F30A5604460D460B46174606BBBA
:1059200021F00043034325D000222F4B00F0E0FB81
:105930002E4A044697420D460B462ADBC1F30A560F
:10594000363E40F2FE723E44964228DC002E12DDC6
:1059500023F0FF4323F4E00343EA0655204629469B
:10596000F8BD40F2FF729642EBD102460B4600F0C2
:105970000DFAF8BDF8BD16F1350F1DDA4CF25033B3
:105980009F420CDC14A1D1E9000122462B4600F015
:10599000E9F911A3D3E9002300F0AAFBF8BD2246E0
:1059A0000FA1D1E900012B4600F0DCF90CA3D3E9EB
:1059B000002300F09DFBF8BD23F0FF4323F4E00338
:1059C000363643EA0655204629460022084B00F0A9
:1059D0008FFBF8BDAFF3008059F3F8C21F6EA5012D
:1059E0009C7500883CE4377E00005043B03CFFFFCC
:1059F0000000903C2DE9F04120F00045B5F1A14FA9
:105A00000446064608DBB5F1FF4F6FDC002840F383
:105A1000A0806F48BDE8F0816E4B9D4277DCB5F108
:105A2000445F68DB4FF0FF372146204600F0B6FFA9
:105A30000146804600F0B2FF0546674900F0AEFF20
:105A4000664900F0A3FE294600F0A8FF644900F073
:105A50009DFE294600F0A2FF624900F097FE29460C
:105A600000F09CFF604900F091FE294600F096FF8F
:105A70005E4900F08BFE414600F090FF5C49804695
:105A8000284600F08BFF5B4900F07EFE294600F0BF
:105A900085FF594900F078FE294600F07FFF5749FD
:105AA00000F072FE294600F079FF554900F06CFEC7
:105AB000294600F073FF7B1C014640464CD000F0A5
:105AC00065FE214600F06AFF4E4B4F4D53F82710FC
